{
  "contractName": "MultiNumberBettingV5",
  "abi": [
    {
      "constant": true,
      "inputs": [],
      "name": "loserCount",
      "outputs": [
        {
          "name": "",
          "type": "uint8"
        }
      ],
      "payable": false,
      "stateMutability": "view",
      "type": "function"
    },
    {
      "constant": true,
      "inputs": [],
      "name": "winnerCount",
      "outputs": [
        {
          "name": "",
          "type": "uint8"
        }
      ],
      "payable": false,
      "stateMutability": "view",
      "type": "function"
    },
    {
      "inputs": [
        {
          "name": "num1",
          "type": "uint8"
        },
        {
          "name": "num2",
          "type": "uint8"
        },
        {
          "name": "num3",
          "type": "uint8"
        }
      ],
      "payable": false,
      "stateMutability": "nonpayable",
      "type": "constructor"
    },
    {
      "constant": false,
      "inputs": [
        {
          "name": "Guess",
          "type": "uint8"
        },
        {
          "name": "name",
          "type": "string"
        }
      ],
      "name": "guess",
      "outputs": [
        {
          "name": "",
          "type": "bool"
        }
      ],
      "payable": false,
      "stateMutability": "nonpayable",
      "type": "function"
    },
    {
      "constant": true,
      "inputs": [],
      "name": "getLastWinnerInfo",
      "outputs": [
        {
          "name": "winnerAddress",
          "type": "address"
        },
        {
          "name": "name",
          "type": "string"
        },
        {
          "name": "winnerGuess",
          "type": "uint256"
        },
        {
          "name": "timeGuessed",
          "type": "uint256"
        }
      ],
      "payable": false,
      "stateMutability": "view",
      "type": "function"
    },
    {
      "constant": true,
      "inputs": [
        {
          "name": "winnerAddress",
          "type": "address"
        }
      ],
      "name": "checkWinning",
      "outputs": [
        {
          "name": "winnerAddress1",
          "type": "address"
        },
        {
          "name": "name1",
          "type": "string"
        },
        {
          "name": "guessVal",
          "type": "uint256"
        },
        {
          "name": "timeGuessed",
          "type": "uint256"
        }
      ],
      "payable": false,
      "stateMutability": "view",
      "type": "function"
    },
    {
      "constant": true,
      "inputs": [],
      "name": "totalGuesses",
      "outputs": [
        {
          "name": "",
          "type": "uint256"
        }
      ],
      "payable": false,
      "stateMutability": "view",
      "type": "function"
    },
    {
      "constant": true,
      "inputs": [],
      "name": "daysSinceLastWinning",
      "outputs": [
        {
          "name": "",
          "type": "uint256"
        }
      ],
      "payable": false,
      "stateMutability": "view",
      "type": "function"
    },
    {
      "constant": true,
      "inputs": [],
      "name": "hoursSinceLastWinning",
      "outputs": [
        {
          "name": "",
          "type": "uint256"
        }
      ],
      "payable": false,
      "stateMutability": "view",
      "type": "function"
    },
    {
      "constant": true,
      "inputs": [],
      "name": "minutesSinceLastWinning",
      "outputs": [
        {
          "name": "",
          "type": "uint256"
        }
      ],
      "payable": false,
      "stateMutability": "view",
      "type": "function"
    }
  ],
  "bytecode": "0x608060405234801561001057600080fd5b50604051606080610d758339810180604052606081101561003057600080fd5b81019080805190602001909291908051906020019092919080519060200190929190505050826000806003811061006357fe5b602091828204019190066101000a81548160ff021916908360ff16021790555081600060016003811061009257fe5b602091828204019190066101000a81548160ff021916908360ff1602179055508060006002600381106100c157fe5b602091828204019190066101000a81548160ff021916908360ff160217905550505050610c82806100f36000396000f3fe608060405234801561001057600080fd5b50600436106100935760003560e01c80636d48a043116100665780636d48a043146101f65780638ef282491461021457806395583f7114610232578063caa02e0814610312578063ee040eb91461033657610093565b806315153cdc1461009857806348992bfa146100b6578063524799a7146100d45780635249c231146100f8575b600080fd5b6100a06103fa565b6040518082815260200191505060405180910390f35b6100be61040a565b6040518082815260200191505060405180910390f35b6100dc610419565b604051808260ff1660ff16815260200191505060405180910390f35b61013a6004803603602081101561010e57600080fd5b81019080803573ffffffffffffffffffffffffffffffffffffffff16906020019092919050505061042c565b604051808573ffffffffffffffffffffffffffffffffffffffff1673ffffffffffffffffffffffffffffffffffffffff16815260200180602001848152602001838152602001828103825285818151815260200191508051906020019080838360005b838110156101b857808201518184015260208101905061019d565b50505050905090810190601f1680156101e55780820380516001836020036101000a031916815260200191505b509550505050505060405180910390f35b6101fe6105c4565b6040518082815260200191505060405180910390f35b61021c6105d5565b6040518082815260200191505060405180910390f35b6102f86004803603604081101561024857600080fd5b81019080803560ff1690602001909291908035906020019064010000000081111561027257600080fd5b82018360208201111561028457600080fd5b803590602001918460018302840111640100000000831117156102a657600080fd5b91908080601f016020809104026020016040519081016040528093929190818152602001838380828437600081840152601f19601f8201169050808301925050505050505091929192905050506105ff565b604051808215151515815260200191505060405180910390f35b61031a610900565b604051808260ff1660ff16815260200191505060405180910390f35b61033e610912565b604051808573ffffffffffffffffffffffffffffffffffffffff1673ffffffffffffffffffffffffffffffffffffffff16815260200180602001848152602001838152602001828103825285818151815260200191508051906020019080838360005b838110156103bc5780820151818401526020810190506103a1565b50505050905090810190601f1680156103e95780820380516001836020036101000a031916815260200191505b509550505050505060405180910390f35b6000610e10600254024203905090565b6000603c600254024203905090565b600160009054906101000a900460ff1681565b6000606060008061043b610b73565b600460008773ffffffffffffffffffffffffffffffffffffffff1673ffffffffffffffffffffffffffffffffffffffff1681526020019081526020016000206040518060800160405290816000820160009054906101000a900473ffffffffffffffffffffffffffffffffffffffff1673ffffffffffffffffffffffffffffffffffffffff1673ffffffffffffffffffffffffffffffffffffffff168152602001600182018054600181600116156101000203166002900480601f0160208091040260200160405190810160405280929190818152602001828054600181600116156101000203166002900480156105745780601f1061054957610100808354040283529160200191610574565b820191906000526020600020905b81548152906001019060200180831161055757829003601f168201915b5050505050815260200160028201548152602001600382015481525050905060008160600151146105bc57806000015194508060200151935080604001519250806060015191505b509193509193565b600062015180600254024203905090565b6000600160009054906101000a900460ff166001809054906101000a900460ff160160ff16905090565b6000600a8360ff161061067a576040517f08c379a000000000000000000000000000000000000000000000000000000000815260040180806020018281038252600f8152602001807f67726561746572207468616e203130000000000000000000000000000000000081525060200191505060405180910390fd5b8260ff166000806003811061068b57fe5b602091828204019190069054906101000a900460ff1660ff1614806106d857508260ff1660006001600381106106bd57fe5b602091828204019190069054906101000a900460ff1660ff16145b8061070b57508260ff1660006002600381106106f057fe5b602091828204019190069054906101000a900460ff1660ff16145b156108c35733600360006101000a81548173ffffffffffffffffffffffffffffffffffffffff021916908373ffffffffffffffffffffffffffffffffffffffff16021790555033600460003373ffffffffffffffffffffffffffffffffffffffff1673ffffffffffffffffffffffffffffffffffffffff16815260200190815260200160002060000160006101000a81548173ffffffffffffffffffffffffffffffffffffffff021916908373ffffffffffffffffffffffffffffffffffffffff16021790555081600460003373ffffffffffffffffffffffffffffffffffffffff1673ffffffffffffffffffffffffffffffffffffffff1681526020019081526020016000206001019080519060200190610828929190610bb1565b508260ff16600460003373ffffffffffffffffffffffffffffffffffffffff1673ffffffffffffffffffffffffffffffffffffffff1681526020019081526020016000206002018190555042600460003373ffffffffffffffffffffffffffffffffffffffff1673ffffffffffffffffffffffffffffffffffffffff16815260200190815260200160002060030181905550600190506108fa565b6001600081819054906101000a900460ff168092919060010191906101000a81548160ff021916908360ff16021790555050600090505b92915050565b6001809054906101000a900460ff1681565b6000606060008060046000600360009054906101000a900473ffffffffffffffffffffffffffffffffffffffff1673ffffffffffffffffffffffffffffffffffffffff1673ffffffffffffffffffffffffffffffffffffffff16815260200190815260200160002060000160009054906101000a900473ffffffffffffffffffffffffffffffffffffffff16935060046000600360009054906101000a900473ffffffffffffffffffffffffffffffffffffffff1673ffffffffffffffffffffffffffffffffffffffff1673ffffffffffffffffffffffffffffffffffffffff1681526020019081526020016000206001018054600181600116156101000203166002900480601f016020809104026020016040519081016040528092919081815260200182805460018160011615610100020316600290048015610a985780601f10610a6d57610100808354040283529160200191610a98565b820191906000526020600020905b815481529060010190602001808311610a7b57829003601f168201915b5050505050925060046000600360009054906101000a900473ffffffffffffffffffffffffffffffffffffffff1673ffffffffffffffffffffffffffffffffffffffff1673ffffffffffffffffffffffffffffffffffffffff16815260200190815260200160002060020154915060046000600360009054906101000a900473ffffffffffffffffffffffffffffffffffffffff1673ffffffffffffffffffffffffffffffffffffffff1673ffffffffffffffffffffffffffffffffffffffff16815260200190815260200160002060030154905090919293565b6040518060800160405280600073ffffffffffffffffffffffffffffffffffffffff1681526020016060815260200160008152602001600081525090565b828054600181600116156101000203166002900490600052602060002090601f016020900481019282601f10610bf257805160ff1916838001178555610c20565b82800160010185558215610c20579182015b82811115610c1f578251825591602001919060010190610c04565b5b509050610c2d9190610c31565b5090565b610c5391905b80821115610c4f576000816000905550600101610c37565b5090565b9056fea165627a7a723058209140fd0dd8c1bcf247b3ad96fbb9e2e20cb28a5c5c54a48ec52ec8be0802901b0029",
  "source": "pragma solidity ^0.5.0;\n\ncontract MultiNumberBettingV5 {\n    uint8[3] storArray;\n    uint8 public loserCount;\n    uint8 public winnerCount;\n    uint lastWinnerAt;\n    address winner;\n\n    mapping  (address => Winner) map;\n    struct Winner {\n        address winnerAddress;\n        string name;\n        uint guess;\n        uint guessedAt;\n    }\n\n    constructor(uint8 num1, uint8 num2, uint8 num3) public {\n        storArray[0] = num1;\n        storArray[1] = num2;\n        storArray[2] = num3;\n    }\n    function guess(uint8 Guess, string memory name) public returns (bool) {\n        require(Guess < 10, \"greater than 10\");\n        if (storArray[0] == Guess || storArray[1] == Guess || storArray[2] == Guess) {\n            winner = msg.sender;\n            map[msg.sender].winnerAddress = msg.sender;\n            map[msg.sender].name = name;\n            map[msg.sender].guess = Guess;\n            map[msg.sender].guessedAt = now;\n            return true;\n        } else {\n            loserCount++;\n            return false;\n        }\n    }\n    function getLastWinnerInfo() public view returns (address winnerAddress, string memory name, uint winnerGuess, uint timeGuessed) {\n        winnerAddress = map[winner].winnerAddress;\n        name = map[winner].name;\n        winnerGuess = map[winner].guess;\n        timeGuessed = map[winner].guessedAt;\n    }\n    function checkWinning(address winnerAddress) public view returns (address winnerAddress1,\n    string memory name1,\n    uint guessVal,\n    uint timeGuessed) {\n        Winner memory tempWinner = map[winnerAddress];\n            if (tempWinner.guessedAt != 0) {\n            winnerAddress1 = tempWinner.winnerAddress;\n            name1 = tempWinner.name;\n            guessVal = tempWinner.guess;\n            timeGuessed = tempWinner.guessedAt;\n        }\n    }\n    function totalGuesses() public view returns (uint) {\n        return winnerCount + loserCount;\n    }\n    function daysSinceLastWinning() public view returns (uint) {\n        return now - (lastWinnerAt * 1 days);\n    }\n    function hoursSinceLastWinning() public view returns (uint) {\n        return now - (lastWinnerAt * 1 hours);\n    }\n    function minutesSinceLastWinning() public view returns (uint) {\n        return now - (lastWinnerAt * 1 minutes);\n    }\n\n}",
  "sourcePath": "/Users/marklin/Desktop/MNBV5/contracts/MultiNumberBettingV5.sol",
  "compiler": {
    "name": "solc",
    "version": "0.5.8+commit.23d335f2.Emscripten.clang"
  },
  "schemaVersion": "3.0.11",
  "updatedAt": "2019-08-08T22:36:38.448Z",
  "devdoc": {
    "methods": {}
  },
  "userdoc": {
    "methods": {}
  }
}