{
  "contractName": "MultiNumberBettingV3",
  "abi": [
    {
      "inputs": [
        {
          "name": "num1",
          "type": "uint8"
        },
        {
          "name": "num2",
          "type": "uint8"
        },
        {
          "name": "num3",
          "type": "uint8"
        }
      ],
      "payable": false,
      "stateMutability": "nonpayable",
      "type": "constructor"
    },
    {
      "constant": false,
      "inputs": [
        {
          "name": "Guess",
          "type": "uint8"
        },
        {
          "name": "name",
          "type": "string"
        }
      ],
      "name": "guess",
      "outputs": [
        {
          "name": "",
          "type": "bool"
        }
      ],
      "payable": false,
      "stateMutability": "nonpayable",
      "type": "function"
    },
    {
      "constant": true,
      "inputs": [],
      "name": "totalGuesses",
      "outputs": [
        {
          "name": "",
          "type": "uint256"
        }
      ],
      "payable": false,
      "stateMutability": "view",
      "type": "function"
    },
    {
      "constant": true,
      "inputs": [],
      "name": "getLastWinner",
      "outputs": [
        {
          "name": "",
          "type": "string"
        }
      ],
      "payable": false,
      "stateMutability": "view",
      "type": "function"
    }
  ],
  "bytecode": "0x608060405234801561001057600080fd5b5060405160608061067a8339810180604052606081101561003057600080fd5b81019080805190602001909291908051906020019092919080519060200190929190505050826000806003811061006357fe5b602091828204019190066101000a81548160ff021916908360ff16021790555081600060016003811061009257fe5b602091828204019190066101000a81548160ff021916908360ff1602179055508060006002600381106100c157fe5b602091828204019190066101000a81548160ff021916908360ff160217905550505050610587806100f36000396000f3fe608060405234801561001057600080fd5b50600436106100415760003560e01c80638ef282491461004657806395583f7114610064578063f88649a114610144575b600080fd5b61004e6101c7565b6040518082815260200191505060405180910390f35b61012a6004803603604081101561007a57600080fd5b81019080803560ff169060200190929190803590602001906401000000008111156100a457600080fd5b8201836020820111156100b657600080fd5b803590602001918460018302840111640100000000831117156100d857600080fd5b91908080601f016020809104026020016040519081016040528093929190818152602001838380828437600081840152601f19601f8201169050808301925050505050505091929192905050506101f1565b604051808215151515815260200191505060405180910390f35b61014c610317565b6040518080602001828103825283818151815260200191508051906020019080838360005b8381101561018c578082015181840152602081019050610171565b50505050905090810190601f1680156101b95780820380516001836020036101000a031916815260200191505b509250505060405180910390f35b6000600160009054906101000a900460ff166001809054906101000a900460ff160160ff16905090565b60008260ff166000806003811061020457fe5b602091828204019190069054906101000a900460ff1660ff16148061025157508260ff16600060016003811061023657fe5b602091828204019190069054906101000a900460ff1660ff16145b8061028457508260ff16600060026003811061026957fe5b602091828204019190069054906101000a900460ff1660ff16145b156102da5760018081819054906101000a900460ff168092919060010191906101000a81548160ff021916908360ff1602179055505081600290805190602001906102d09291906104b6565b5060019050610311565b6001600081819054906101000a900460ff168092919060010191906101000a81548160ff021916908360ff16021790555050600090505b92915050565b60608060028054600181600116156101000203166002900480601f0160208091040260200160405190810160405280929190818152602001828054600181600116156101000203166002900480156103b05780601f10610385576101008083540402835291602001916103b0565b820191906000526020600020905b81548152906001019060200180831161039357829003601f168201915b505050505090506000815114156103ff576040518060400160405280600381526020017f2a2a2a00000000000000000000000000000000000000000000000000000000008152509150506104b3565b606060036040519080825280601f01601f1916602001820160405280156104355781602001600182028038833980820191505090505b509050606081905060008090505b60038110156104ab5783818151811061045857fe5b602001015160f81c60f81b82828151811061046f57fe5b60200101907effffffffffffffffffffffffffffffffffffffffffffffffffffffffffffff1916908160001a9053508080600101915050610443565b508093505050505b90565b828054600181600116156101000203166002900490600052602060002090601f016020900481019282601f106104f757805160ff1916838001178555610525565b82800160010185558215610525579182015b82811115610524578251825591602001919060010190610509565b5b5090506105329190610536565b5090565b61055891905b8082111561055457600081600090555060010161053c565b5090565b9056fea165627a7a72305820aae2b77c80fde21c59116fc8dbe466de6f124f88c67482b7a6461e7909a221100029",
  "source": "pragma solidity ^0.5.0;\n\ncontract MultiNumberBettingV3 {\n    uint8[3] storArray;\n    uint8 loserCount;\n    uint8 winnerCount;\n    string lastWinnerName;\n    constructor(uint8 num1, uint8 num2, uint8 num3) public {\n        storArray[0] = num1;\n        storArray[1] = num2;\n        storArray[2] = num3;\n    }\n    function guess(uint8 Guess, string memory name) public returns (bool) {\n        if (storArray[0] == Guess || storArray[1] == Guess || storArray[2] == Guess) {\n            winnerCount++;\n            lastWinnerName = name;\n            return true;\n        } else {\n            loserCount++;\n            return false;\n        }\n    }\n    function totalGuesses() public view returns (uint) {\n        return winnerCount + loserCount;\n    }\n    function getLastWinner() public view returns (string memory) {\n        bytes memory temp = bytes(lastWinnerName);\n        if (temp.length == 0) {\n            return \"***\";\n        }\n        string memory name = new string(3);\n        bytes memory temp2 = bytes(name);\n        for (uint i = 0; i < 3; i++) {\n            temp2[i] = temp[i];\n        }\n        return string(temp2);\n    }\n}",
  "sourcePath": "/Users/marklin/Desktop/MNBV3/contracts/MultiNumberBettingV3.sol",
  "compiler": {
    "name": "solc",
    "version": "0.5.8+commit.23d335f2.Emscripten.clang"
  },
  "schemaVersion": "3.0.11",
  "updatedAt": "2019-08-07T23:46:09.290Z",
  "devdoc": {
    "methods": {}
  },
  "userdoc": {
    "methods": {}
  }
}