{
  "contractName": "MultiNumberBettingV6",
  "abi": [
    {
      "constant": true,
      "inputs": [],
      "name": "loserCount",
      "outputs": [
        {
          "name": "",
          "type": "uint8"
        }
      ],
      "payable": false,
      "stateMutability": "view",
      "type": "function"
    },
    {
      "constant": true,
      "inputs": [],
      "name": "winnerCount",
      "outputs": [
        {
          "name": "",
          "type": "uint8"
        }
      ],
      "payable": false,
      "stateMutability": "view",
      "type": "function"
    },
    {
      "inputs": [
        {
          "name": "num1",
          "type": "uint8"
        },
        {
          "name": "num2",
          "type": "uint8"
        },
        {
          "name": "num3",
          "type": "uint8"
        }
      ],
      "payable": true,
      "stateMutability": "payable",
      "type": "constructor"
    },
    {
      "payable": true,
      "stateMutability": "payable",
      "type": "fallback"
    },
    {
      "constant": false,
      "inputs": [
        {
          "name": "Guess",
          "type": "uint8"
        },
        {
          "name": "name",
          "type": "string"
        }
      ],
      "name": "guess",
      "outputs": [
        {
          "name": "",
          "type": "bool"
        }
      ],
      "payable": true,
      "stateMutability": "payable",
      "type": "function"
    },
    {
      "constant": true,
      "inputs": [],
      "name": "getLastWinnerInfo",
      "outputs": [
        {
          "name": "winnerAddress",
          "type": "address"
        },
        {
          "name": "name",
          "type": "string"
        },
        {
          "name": "winnerGuess",
          "type": "uint256"
        },
        {
          "name": "timeGuessed",
          "type": "uint256"
        },
        {
          "name": "ethersReceived",
          "type": "uint256"
        }
      ],
      "payable": false,
      "stateMutability": "view",
      "type": "function"
    },
    {
      "constant": true,
      "inputs": [
        {
          "name": "winnerAddress",
          "type": "address"
        }
      ],
      "name": "checkWinning",
      "outputs": [
        {
          "name": "winnerAddress1",
          "type": "address"
        },
        {
          "name": "name1",
          "type": "string"
        },
        {
          "name": "guessVal",
          "type": "uint256"
        },
        {
          "name": "timeGuessed",
          "type": "uint256"
        }
      ],
      "payable": false,
      "stateMutability": "view",
      "type": "function"
    },
    {
      "constant": true,
      "inputs": [],
      "name": "totalGuesses",
      "outputs": [
        {
          "name": "",
          "type": "uint256"
        }
      ],
      "payable": false,
      "stateMutability": "view",
      "type": "function"
    },
    {
      "constant": true,
      "inputs": [],
      "name": "daysSinceLastWinning",
      "outputs": [
        {
          "name": "",
          "type": "uint256"
        }
      ],
      "payable": false,
      "stateMutability": "view",
      "type": "function"
    },
    {
      "constant": true,
      "inputs": [],
      "name": "hoursSinceLastWinning",
      "outputs": [
        {
          "name": "",
          "type": "uint256"
        }
      ],
      "payable": false,
      "stateMutability": "view",
      "type": "function"
    },
    {
      "constant": true,
      "inputs": [],
      "name": "minutesSinceLastWinning",
      "outputs": [
        {
          "name": "",
          "type": "uint256"
        }
      ],
      "payable": false,
      "stateMutability": "view",
      "type": "function"
    },
    {
      "constant": false,
      "inputs": [
        {
          "name": "amount",
          "type": "uint256"
        }
      ],
      "name": "ownerWithdraw",
      "outputs": [],
      "payable": false,
      "stateMutability": "nonpayable",
      "type": "function"
    }
  ],
  "bytecode": "0x608060405233600560006101000a81548173ffffffffffffffffffffffffffffffffffffffff021916908373ffffffffffffffffffffffffffffffffffffffff1602179055506040516060806112568339810180604052606081101561006457600080fd5b81019080805190602001909291908051906020019092919080519060200190929190505050826000806003811061009757fe5b602091828204019190066101000a81548160ff021916908360ff1602179055508160006001600381106100c657fe5b602091828204019190066101000a81548160ff021916908360ff1602179055508060006002600381106100f557fe5b602091828204019190066101000a81548160ff021916908360ff16021790555033600560006101000a81548173ffffffffffffffffffffffffffffffffffffffff021916908373ffffffffffffffffffffffffffffffffffffffff1602179055505050506110ee806101686000396000f3fe6080604052600436106100915760003560e01c80636d48a043116100595780636d48a043146102605780638ef282491461028b57806395583f71146102b6578063caa02e0814610396578063ee040eb9146103c757610091565b806315153cdc1461009357806333f707d1146100be57806348992bfa146100f9578063524799a7146101245780635249c23114610155575b005b34801561009f57600080fd5b506100a861049f565b6040518082815260200191505060405180910390f35b3480156100ca57600080fd5b506100f7600480360360208110156100e157600080fd5b81019080803590602001909291905050506104af565b005b34801561010557600080fd5b5061010e6105c2565b6040518082815260200191505060405180910390f35b34801561013057600080fd5b506101396105d1565b604051808260ff1660ff16815260200191505060405180910390f35b34801561016157600080fd5b506101a46004803603602081101561017857600080fd5b81019080803573ffffffffffffffffffffffffffffffffffffffff1690602001909291905050506105e4565b604051808573ffffffffffffffffffffffffffffffffffffffff1673ffffffffffffffffffffffffffffffffffffffff16815260200180602001848152602001838152602001828103825285818151815260200191508051906020019080838360005b83811015610222578082015181840152602081019050610207565b50505050905090810190601f16801561024f5780820380516001836020036101000a031916815260200191505b509550505050505060405180910390f35b34801561026c57600080fd5b50610275610786565b6040518082815260200191505060405180910390f35b34801561029757600080fd5b506102a0610797565b6040518082815260200191505060405180910390f35b61037c600480360360408110156102cc57600080fd5b81019080803560ff169060200190929190803590602001906401000000008111156102f657600080fd5b82018360208201111561030857600080fd5b8035906020019184600183028401116401000000008311171561032a57600080fd5b91908080601f016020809104026020016040519081016040528093929190818152602001838380828437600081840152601f19601f8201169050808301925050505050505091929192905050506107c1565b604051808215151515815260200191505060405180910390f35b3480156103a257600080fd5b506103ab610cfb565b604051808260ff1660ff16815260200191505060405180910390f35b3480156103d357600080fd5b506103dc610d0d565b604051808673ffffffffffffffffffffffffffffffffffffffff1673ffffffffffffffffffffffffffffffffffffffff16815260200180602001858152602001848152602001838152602001828103825286818151815260200191508051906020019080838360005b83811015610460578082015181840152602081019050610445565b50505050905090810190601f16801561048d5780820380516001836020036101000a031916815260200191505b50965050505050505060405180910390f35b6000610e10600254024203905090565b600560009054906101000a900473ffffffffffffffffffffffffffffffffffffffff1673ffffffffffffffffffffffffffffffffffffffff163373ffffffffffffffffffffffffffffffffffffffff161415610551573373ffffffffffffffffffffffffffffffffffffffff166108fc829081150290604051600060405180830381858888f1935050505015801561054b573d6000803e3d6000fd5b506105bf565b6040517f08c379a000000000000000000000000000000000000000000000000000000000815260040180806020018281038252600a8152602001807f4e6f74206f776e65722e0000000000000000000000000000000000000000000081525060200191505060405180910390fd5b50565b6000603c600254024203905090565b600160009054906101000a900460ff1681565b600060606000806105f3610fd8565b600460008773ffffffffffffffffffffffffffffffffffffffff1673ffffffffffffffffffffffffffffffffffffffff1681526020019081526020016000206040518060a00160405290816000820160009054906101000a900473ffffffffffffffffffffffffffffffffffffffff1673ffffffffffffffffffffffffffffffffffffffff1673ffffffffffffffffffffffffffffffffffffffff168152602001600182018054600181600116156101000203166002900480601f01602080910402602001604051908101604052809291908181526020018280546001816001161561010002031660029004801561072c5780601f106107015761010080835404028352916020019161072c565b820191906000526020600020905b81548152906001019060200180831161070f57829003601f168201915b5050505050815260200160028201548152602001600382015481526020016004820154815250509050600081606001511461077e57806000015194508060200151935080604001519250806060015191505b509193509193565b600062015180600254024203905090565b6000600160009054906101000a900460ff166001809054906101000a900460ff160160ff16905090565b6000600a8360ff161061083c576040517f08c379a000000000000000000000000000000000000000000000000000000000815260040180806020018281038252600f8152602001807f67726561746572207468616e203130000000000000000000000000000000000081525060200191505060405180910390fd5b670de0b6b3a76400003411801561085a5750674563918244f4000034105b156108cd576040517f08c379a000000000000000000000000000000000000000000000000000000000815260040180806020018281038252601a8152602001807f4f757473696465207468652062657474696e672072616e67652e00000000000081525060200191505060405180910390fd5b670de0b6b3a76400006003023073ffffffffffffffffffffffffffffffffffffffff163111610964576040517f08c379a00000000000000000000000000000000000000000000000000000000081526004018080602001828103825260128152602001807f436f6e74726163742069732062726f6b652e000000000000000000000000000081525060200191505060405180910390fd5b8260ff166000806003811061097557fe5b602091828204019190069054906101000a900460ff1660ff1614806109c257508260ff1660006001600381106109a757fe5b602091828204019190069054906101000a900460ff1660ff16145b806109f557508260ff1660006002600381106109da57fe5b602091828204019190069054906101000a900460ff1660ff16145b15610cbe5760018081819054906101000a900460ff168092919060010191906101000a81548160ff021916908360ff1602179055505033600360006101000a81548173ffffffffffffffffffffffffffffffffffffffff021916908373ffffffffffffffffffffffffffffffffffffffff16021790555033600460003373ffffffffffffffffffffffffffffffffffffffff1673ffffffffffffffffffffffffffffffffffffffff16815260200190815260200160002060000160006101000a81548173ffffffffffffffffffffffffffffffffffffffff021916908373ffffffffffffffffffffffffffffffffffffffff16021790555081600460003373ffffffffffffffffffffffffffffffffffffffff1673ffffffffffffffffffffffffffffffffffffffff1681526020019081526020016000206001019080519060200190610b4392919061101d565b508260ff16600460003373ffffffffffffffffffffffffffffffffffffffff1673ffffffffffffffffffffffffffffffffffffffff1681526020019081526020016000206002018190555042600460003373ffffffffffffffffffffffffffffffffffffffff1673ffffffffffffffffffffffffffffffffffffffff1681526020019081526020016000206003018190555034600460003373ffffffffffffffffffffffffffffffffffffffff1673ffffffffffffffffffffffffffffffffffffffff16815260200190815260200160002060040181905550600460003373ffffffffffffffffffffffffffffffffffffffff1673ffffffffffffffffffffffffffffffffffffffff1681526020019081526020016000206003015460028190555060006002340290503373ffffffffffffffffffffffffffffffffffffffff166108fc829081150290604051600060405180830381858888f19350505050158015610cb3573d6000803e3d6000fd5b506001915050610cf5565b6001600081819054906101000a900460ff168092919060010191906101000a81548160ff021916908360ff16021790555050600090505b92915050565b6001809054906101000a900460ff1681565b60006060600080600060046000600360009054906101000a900473ffffffffffffffffffffffffffffffffffffffff1673ffffffffffffffffffffffffffffffffffffffff1673ffffffffffffffffffffffffffffffffffffffff16815260200190815260200160002060000160009054906101000a900473ffffffffffffffffffffffffffffffffffffffff16945060046000600360009054906101000a900473ffffffffffffffffffffffffffffffffffffffff1673ffffffffffffffffffffffffffffffffffffffff1673ffffffffffffffffffffffffffffffffffffffff1681526020019081526020016000206001018054600181600116156101000203166002900480601f016020809104026020016040519081016040528092919081815260200182805460018160011615610100020316600290048015610e955780601f10610e6a57610100808354040283529160200191610e95565b820191906000526020600020905b815481529060010190602001808311610e7857829003601f168201915b5050505050935060046000600360009054906101000a900473ffffffffffffffffffffffffffffffffffffffff1673ffffffffffffffffffffffffffffffffffffffff1673ffffffffffffffffffffffffffffffffffffffff16815260200190815260200160002060020154925060046000600360009054906101000a900473ffffffffffffffffffffffffffffffffffffffff1673ffffffffffffffffffffffffffffffffffffffff1673ffffffffffffffffffffffffffffffffffffffff16815260200190815260200160002060030154915060046000600360009054906101000a900473ffffffffffffffffffffffffffffffffffffffff1673ffffffffffffffffffffffffffffffffffffffff1673ffffffffffffffffffffffffffffffffffffffff1681526020019081526020016000206004015490509091929394565b6040518060a00160405280600073ffffffffffffffffffffffffffffffffffffffff168152602001606081526020016000815260200160008152602001600081525090565b828054600181600116156101000203166002900490600052602060002090601f016020900481019282601f1061105e57805160ff191683800117855561108c565b8280016001018555821561108c579182015b8281111561108b578251825591602001919060010190611070565b5b509050611099919061109d565b5090565b6110bf91905b808211156110bb5760008160009055506001016110a3565b5090565b9056fea165627a7a72305820f1980cfa2f699010f7b36b228c5f369063db4d8d6b107ca50a734997bf11657e0029",
  "source": "pragma solidity ^0.5.0;\n\nimport \"./MultiNumberBettingAbstractV2.sol\";\n\ncontract MultiNumberBettingV6 is MultiNumberBettingAbstractV2 {\n    uint8[3] storArray;\n    uint8 public loserCount;\n    uint8 public winnerCount;\n    uint lastWinnerAt;\n    address winner;\n\n    mapping  (address => Winner) map;\n    struct Winner {\n        address winnerAddress;\n        string name;\n        uint guess;\n        uint guessedAt;\n        uint ethersReceived;\n    }\n\n    constructor(uint8 num1, uint8 num2, uint8 num3) public payable {\n        storArray[0] = num1;\n        storArray[1] = num2;\n        storArray[2] = num3;\n        owner = msg.sender;\n    }\n    address owner = msg.sender;\n    modifier ownerOnly {\n        if (msg.sender == owner) {\n            _;\n            return;\n        } else {\n            revert(\"Not owner.\");\n        }\n    }\n\n    function guess(uint8 Guess, string memory name) public payable returns (bool) {\n        require(Guess < 10, \"greater than 10\");\n        if (msg.value > MAX_BET && msg.value < MIN_BET) {\n            revert(\"Outside the betting range.\");\n        }\n        require(address(this).balance > 3*MAX_BET, \"Contract is broke.\");\n        if (storArray[0] == Guess || storArray[1] == Guess || storArray[2] == Guess) {\n            winnerCount++;\n            winner = msg.sender;\n            map[msg.sender].winnerAddress = msg.sender;\n            map[msg.sender].name = name;\n            map[msg.sender].guess = Guess;\n            map[msg.sender].guessedAt = now;\n            map[msg.sender].ethersReceived = msg.value;\n            lastWinnerAt = map[msg.sender].guessedAt;\n            uint winnings = msg.value*2;\n            msg.sender.transfer(winnings);\n            return true;\n        } else {\n            loserCount++;\n            return false;\n        }\n    }\n    function getLastWinnerInfo() public view returns (address winnerAddress,\n    string memory name,\n    uint winnerGuess,\n    uint timeGuessed,\n    uint ethersReceived) {\n        winnerAddress = map[winner].winnerAddress;\n        name = map[winner].name;\n        winnerGuess = map[winner].guess;\n        timeGuessed = map[winner].guessedAt;\n        ethersReceived = map[winner].ethersReceived;\n    }\n    function checkWinning(address winnerAddress) public view returns (address winnerAddress1,\n    string memory name1,\n    uint guessVal,\n    uint timeGuessed) {\n        Winner memory tempWinner = map[winnerAddress];\n            if (tempWinner.guessedAt != 0) {\n            winnerAddress1 = tempWinner.winnerAddress;\n            name1 = tempWinner.name;\n            guessVal = tempWinner.guess;\n            timeGuessed = tempWinner.guessedAt;\n        }\n    }\n    function totalGuesses() public view returns (uint) {\n        return winnerCount + loserCount;\n    }\n    function daysSinceLastWinning() public view returns (uint) {\n        return now - (lastWinnerAt * 1 days);\n    }\n    function hoursSinceLastWinning() public view returns (uint) {\n        return now - (lastWinnerAt * 1 hours);\n    }\n    function minutesSinceLastWinning() public view returns (uint) {\n        return now - (lastWinnerAt * 1 minutes);\n    }\n    function ownerWithdraw(uint amount) public ownerOnly {\n        msg.sender.transfer(amount);\n    }\n    // fallback function\n    function() external payable {}\n}",
  "sourcePath": "/Users/marklin/Desktop/MNBV6/contracts/MultiNumberBettingV6.sol",
  "compiler": {
    "name": "solc",
    "version": "0.5.8+commit.23d335f2.Emscripten.clang"
  },
  "schemaVersion": "3.0.11",
  "updatedAt": "2019-08-09T02:20:36.350Z",
  "devdoc": {
    "methods": {}
  },
  "userdoc": {
    "methods": {}
  }
}