{
  "contractName": "MultiNumberBettingV1",
  "abi": [
    {
      "inputs": [
        {
          "name": "num1",
          "type": "uint8"
        },
        {
          "name": "num2",
          "type": "uint8"
        },
        {
          "name": "num3",
          "type": "uint8"
        }
      ],
      "payable": false,
      "stateMutability": "nonpayable",
      "type": "constructor"
    },
    {
      "constant": false,
      "inputs": [
        {
          "name": "Guess",
          "type": "uint8"
        }
      ],
      "name": "guess",
      "outputs": [
        {
          "name": "",
          "type": "bool"
        }
      ],
      "payable": false,
      "stateMutability": "nonpayable",
      "type": "function"
    },
    {
      "constant": true,
      "inputs": [],
      "name": "totalGuesses",
      "outputs": [
        {
          "name": "",
          "type": "uint256"
        }
      ],
      "payable": false,
      "stateMutability": "view",
      "type": "function"
    }
  ],
  "bytecode": "0x608060405234801561001057600080fd5b506040516060806102f98339810180604052606081101561003057600080fd5b81019080805190602001909291908051906020019092919080519060200190929190505050826000806003811061006357fe5b602091828204019190066101000a81548160ff021916908360ff16021790555081600060016003811061009257fe5b602091828204019190066101000a81548160ff021916908360ff1602179055508060006002600381106100c157fe5b602091828204019190066101000a81548160ff021916908360ff160217905550505050610206806100f36000396000f3fe608060405234801561001057600080fd5b50600436106100365760003560e01c80634ba4c16b1461003b5780638ef2824914610084575b600080fd5b61006a6004803603602081101561005157600080fd5b81019080803560ff1690602001909291905050506100a2565b604051808215151515815260200191505060405180910390f35b61008c6101b0565b6040518082815260200191505060405180910390f35b60008160ff16600080600381106100b557fe5b602091828204019190069054906101000a900460ff1660ff16148061010257508160ff1660006001600381106100e757fe5b602091828204019190069054906101000a900460ff1660ff16145b8061013557508160ff16600060026003811061011a57fe5b602091828204019190069054906101000a900460ff1660ff16145b156101745760018081819054906101000a900460ff168092919060010191906101000a81548160ff021916908360ff16021790555050600190506101ab565b6001600081819054906101000a900460ff168092919060010191906101000a81548160ff021916908360ff16021790555050600090505b919050565b6000600160009054906101000a900460ff166001809054906101000a900460ff160160ff1690509056fea165627a7a72305820799dba811c2d199a819cdbb111bc2091268717265c871fef5ba7deacf4c943540029",
  "source": "pragma solidity ^0.5.0;\n\ncontract MultiNumberBettingV1 {\n    uint8[3] storArray;\n    uint8 loserCount;\n    uint8 winnerCount;\n    constructor(uint8 num1, uint8 num2, uint8 num3) public {\n        storArray[0] = num1;\n        storArray[1] = num2;\n        storArray[2] = num3;\n    }\n    function guess(uint8 Guess) public returns (bool) {\n        if (storArray[0] == Guess || storArray[1] == Guess || storArray[2] == Guess) {\n            winnerCount++;\n            return true;\n        } else {\n            loserCount++;\n            return false;\n        }\n    }\n    function totalGuesses() public view returns (uint) {\n        return winnerCount + loserCount;\n    }\n}",
  "sourcePath": "/Users/marklin/Desktop/MNBV1/contracts/MultiNumberBettingV1.sol",
  "compiler": {
    "name": "solc",
    "version": "0.5.8+commit.23d335f2.Emscripten.clang"
  },
  "schemaVersion": "3.0.11",
  "updatedAt": "2019-08-07T19:59:59.956Z",
  "devdoc": {
    "methods": {}
  },
  "userdoc": {
    "methods": {}
  }
}